:020000040800F2
:1000000000000220E1050008DD0500083D4400086D
:10001000DD050008DD050008DD0500080000000022
:10002000000000000000000000000000DD050008E6
:10003000DD05000800000000DD050008C1430008E0
:10004000DD050008DD050008DD050008DD05000808
:10005000DD050008DD050008DD050008DD050008F8
:10006000DD050008DD050008DD050008C93F0008C2
:10007000D53F0008A92A0008E13F0008ED3F00082D
:10008000B9F10008AD340008DD050008DD05000801
:10009000DD050008DD050008DD050008DD050008B8
:1000A000DD050008DD050008DD050008DD050008A8
:1000B00079E5000885E5000891E50008E1340008CD
:1000C000DD050008ED340008DD050008E9DD000865
:1000D000F5DD0008EDEF00081DF0000851F0000804
:1000E000DD050008DD05000800000000DD05000852
:1000F000DD050008DD050008DD050008DD05000858
:10010000DD050008DD0500089DE5000801DE0008AA
:1001100085F00008B9F00008752D0008DD0500081D
:100120005D2D0008692D000825DE000859DE000855
:10013000EDF10008DD050008DD050008DD0500081B
:1001400000000000000000000000000000000000AF
:10015000DD050008DD050008DD050008EDF00008FC
:10016000F9340008DD050008D1430008F543000814
:10017000DD05000819440008DD050008DD0500085C
:10018000DD050008DD05000821F1000851F1000837
:100190000DDE000819DE0008DD050008DD05000899
:1001A000DD050008DD050008DD050008DD050008A7
:1001B000E93C0008DD050008DD050008DD05000854
:1001C000DD050008DD050008DD050008DD05000887
:1001D000DD050008DD050008DD050008DD05000877
:1001E000DD050008DD050008DD050008DD05000867
:1001F000DD050008DD050008DD050008DD05000857
:10020000DD050008DD050008DD050008DD05000846
:10021000DD050008DD050008DD050008DD05000836
:10022000DD050008DD050008DD0500080000000010
:10023000DD050008DD05000800000000DD05000800
:10024000DD050008DD050008DD050008DD05000806
:10025000DD050008DD050008DD050008DD050008F6
:10026000DD050008DD050008DD050008DD050008E6
:10027000DD050008DD05000885F10008000000002C
:10028000DD050008DD050008DD05000800000000B0
:0802900000000000DD0500087C
:1002980010B5054C237833B9044B13B10448AFF3B8
:1002A80000800123237010BD80030024000000009B
:1002B8004C1D010808B5034B1BB103490348AFF3B4
:1002C800008008BD00000000840300244C1D0108C4
:1002D80053B94AB9002908BF00281CBF4FF0FF31A5
:1002E8004FF0FF3000F074B9ADF1080C6DE904CEA1
:1002F80000F006F8DDF804E0DDE9022304B07047F9
:100308002DE9F047089D04468E46002B4DD18A42C0
:10031800944669D9B2FA82F252B101FA02F3C2F1F3
:10032800200120FA01F10CFA02FC41EA030E944084
:100338004FEA1C48210CBEFBF8F61FFA8CF708FBA5
:1003480016E341EA034306FB07F199420AD91CEB7D
:10035800030306F1FF3080F01F81994240F21C81AF
:10036800023E63445B1AA4B2B3FBF8F008FB1033F7
:1003780044EA034400FB07F7A7420AD91CEB04042C
:1003880000F1FF3380F00A81A74240F207816444FC
:10039800023840EA0640E41B00261DB1D440002381
:1003A800C5E900433146BDE8F0878B4209D9002DE5
:1003B80000F0EF800026C5E9000130463146BDE86F
:1003C800F087B3FA83F6002E4AD18B4202D38242D9
:1003D80000F2F980841A61EB030301209E46002D88
:1003E800E0D0C5E9004EDDE702B9FFDEB2FA82F2DD
:1003F800002A40F09280A1EB0C014FEA1C471FFA3B
:100408008CFE0126200CB1FBF7F307FB131140EA21
:1004180001410EFB03F0884208D91CEB010103F1EE
:10042800FF3802D2884200F2CB804346091AA4B2B0
:10043800B1FBF7F007FB101144EA01440EFB00FE84
:10044800A64508D91CEB040400F1FF3102D2A645E9
:1004580000F2BB800846A4EB0E0440EA03409CE788
:10046800C6F12007B34022FA07FC4CEA030C20FA35
:1004780007F401FA06F31C43F9404FEA1C4900FA55
:1004880006F3B1FBF9F8200C1FFA8CFE09FB1811D2
:1004980040EA014108FB0EF0884202FA06F20BD945
:1004A8001CEB010108F1FF3A80F08880884240F295
:1004B8008580A8F102086144091AA4B2B1FBF9F0D9
:1004C80009FB101144EA014100FB0EFE8E4508D9D4
:1004D8001CEB010100F1FF346CD28E456AD9023859
:1004E800614440EA0840A0FB0294A1EB0E01A1423E
:1004F800C846A64656D353D05DB1B3EB080261EBAC
:100508000E0101FA07F722FA06F3F1401F43C5E985
:10051800007100263146BDE8F087C2F12003D840BB
:100528000CFA02FC21FA03F3914001434FEA1C47FD
:100538001FFA8CFEB3FBF7F007FB10360B0C43EAEF
:10054800064300FB0EF69E4204FA02F408D91CEB9F
:10055800030300F1FF382FD29E422DD9023863449D
:100568009B1B89B2B3FBF7F607FB163341EA03413D
:1005780006FB0EF38B4208D91CEB010106F1FF388C
:1005880016D28B4214D9023E6144C91A46EA004683
:1005980038E72E46284605E70646E3E61846F8E615
:1005A8004B45A9D2B9EB020864EB0C0E0138A3E75E
:1005B8004646EAE7204694E74046D1E7D0467BE73F
:1005C800023B614432E7304609E76444023842E7B7
:1005D800704700BFFEE700BF0B480C4A904203D0AB
:1005E800121A0B4911F0A0FA0A480B4A904203D09C
:1005F800121A002111F0A6FA04F048F911F070FA65
:1006080000F0F8FBFEE700BF000000247C03002494
:10061800801D010880030024903E0224704700BF1B
:10062800704700BF704700BF704700BF90ED0D6A6C
:1006380090ED0E3AD0ED0F2AD0ED0C1A90ED0A2A63
:1006480090ED0B1A90ED104AD0ED114AD0ED120A38
:10065800002A00F01882F6EE007AD0ED143AF1EE96
:10066800465A63EEA73A2DE9F04FFDEEE37A541EA1
:1006780001F1080E17EE905AF8EEE77AD0E9003249
:1006880073EEE73A2DED088BE1E1D0ED036AB6EEA3
:10069800000A90ED075A90ED027AD0ED067AD0ED77
:1006A800048A90ED088A96EEA87AC0ED026AD5EE23
:1006B800087A80ED065A76EE806A80ED037AC0EDFE
:1006C800077AB2EE047A9FEDF20A1EED028A03F170
:1006D80064091EED015A03F17001A6EE807ADFED80
:1006E800ED7A78EE056ADFEDEC8AC9F30D09C1F3FE
:1006F8000D0103F21316C8F30D0826EE810A03F163
:10070800720CC6F30D0603F20527FDEEC76ACCF39B
:100718000D0CC7F30D07B0EE48BA0EF1080E013CF8
:1007280016EE90AAF8EEE66A03EB0A0B77EE666A15
:100738000BF1010ACBF30D0BCAF30D0A32F91BB00A
:1007480032F91AA009EE10BA07EE10AAB8EEC99A43
:10075800B8EEC77A27EE277AA9EE677A26EE877A67
:10076800A9EE277A37EE287AF0EE476AFEEECA6AD3
:1007780016EE90AAF0EE406A0AF30F0A22F819A0C2
:1007880003F2151932F91110E7EE286AC9F30D09B9
:10079800B0EE000A07EE101A03F29531B8EEC77AE8
:1007A800C1F30D0127EE277AE6EE076AB0EE669AE6
:1007B800A6EEA57ABEEECA9A19EE10AA0AF30F0A97
:1007C80022F818A003F2072832F91660C8F30D08BA
:1007D80006EE906A5E19F8EEE66A66EEA76AA6EE7D
:1007E800267AB0EE479AE7EE256ABEEECA9A19EE67
:1007F80010AA0AF30F0A22F81CA042F6525C32F93A
:10080800177007EE107A42F65357B8EEC77A374496
:1008180066449C44C7F30D0727EE277AC6F30D06F6
:10082800CCF30D0CE6EE076AB0EE669AA6EEA57A52
:10083800BEEECA9A19EE10AA0AF30F0A22F819A0F6
:1008480003F60B2932F91110C9F30D0909EE101A34
:1008580003F29731B8EEC99AC1F30D0129EE279A30
:10086800A6EE097AF0EE476AA7EE259AFEEECA6A66
:1008780016EE90AA0AF30F0A22F818A041F2022AEB
:1008880032F917B032F919809A4406EE90BA32F963
:1008980016B007EE108ACAF30D0AF8EEE66A09EEFA
:1008A80090BAB8EEC77A41F20428F8EEE99A03F64E
:1008B8000D2966EEA76A984427EE277AC9F30D0931
:1008C800C8F30D08E9EEE76A63EEA66AE9EEA76ADF
:1008D80076EE896A76EEC46AA3EE264A74EE606AFA
:1008E800E2EEA60A74EE606AE7EE256AA6EE267ABC
:1008F800FEEECA6A16EE90BA0BF30F0B22F811B08F
:1009080032F91A1041F6567A09EE901A9A44F8EE1E
:10091800E99ACAF30D0A69EEA79AA6EE297AE7EED4
:10092800259ABEEECA7A17EE101A01F30F01B0EE3F
:10093800697A22F8191099EE80BA42F2D06141F62C
:100948005879BEEECA7A19449944C1F30D0117EEDD
:1009580010BAC9F30D090BF30F0B22F818B0ABEE60
:10096800028A32F9177032F9166006EE907A32F977
:1009780011100AEE906A32F91A60F8EEE66A07EE8C
:10098800101AF8EEEAAA0AEE106AB8EEC77A0EED67
:10099800048A66EEA76A42F65051B8EECAAA42F235
:1009A800D26627EE277A1944EAEEE76A1E446AEE11
:1009B800279AC1F30D01C6F30D0666EEA36AEAEEA7
:1009C800A76AA6EEA89AA1EEA99A39EE649AE3EE70
:1009D800094A74EEE06AE2EEA60A34EEE08AA6EE70
:1009E800078AF0EE486AA8EE257AFEEECA6A16EE85
:1009F800907A07F30F0722F81970F0EE476A32F978
:100A0800111007EE101AB8EEC77A67EE277AB0EE23
:100A1800667AA7EEA57AE6EE077ABEEECA7A17EEF0
:100A2800101AB0EE457A01F30F0122F8161097EE6E
:100A3800807AFEEECA7A17EE901A01F30F01A7EE3C
:100A4800025A22F81C10611C0EED035A12D0591ECE
:100A58000BD40B468846DE063FF417AEF6EE007A56
:100A6800D0ED026A76EEA76A2BE603F57F533F3393
:100A78009846F0E7BDEC088B036080ED104AC0EDA6
:100A8800114ABDE8F08F80ED104AC0ED114A704759
:100A98000000704200008039000000002DE9F04F8E
:100AA8008146BE4892468B462DED048B87B000F0F8
:100AB8001BFC0021B94800F023FC0121B748B0EE27
:100AC800409A00F01DFC0221B448B0EE408A00F0C4
:100AD80017FC0321B148F0EE408A00F011FC042114
:100AE800AE48F0EE409A00F00BFC0521AB4839EE19
:100AF800009A00F005FC0621A84838EE008A00F0AC
:100B0800FFFB0721A54878EE808A00F0F9FBF6EE96
:100B1800007AF0EE006A9FEDA26A39EE807A68EEFC
:100B2800277A76EEC86A67EEA67AE9EE067AF5EED7
:100B3800C07AF1EE10FA00F12C81F7EE006AF4EEBB
:100B4800E67AF1EE10FA40F3C2809FED963ADFEDB7
:100B5800962ADFED963AB6EE005A9FED954AB0EE2A
:100B6800636ADFED944AF0EE446ADFED937ADFEDD5
:100B7800935AA8EE276A924BE8EEA56A914A77EE57
:100B8800247ADFED911AF7EE005A9FED902AC7FEFE
:100B9800A47AC7FEE57AF4EEC57AC3ED0A2A86FE82
:100BA800236AC6FE846AF1EE10FA83ED0C3A86FEDB
:100BB800616AC6FEC26A83ED146AC3ED0D6ADA6221
:100BC80040F1D68037EE057ADFED816ADFED817A74
:100BD800C3ED0F4AE7EE267AC3ED0E7ABAF1000F9D
:100BE80000F0C1807C4C00257C4E04F12C0794ED6C
:100BF800075A4FEA8508D4ED042A94ED067AD4ED15
:100C0800034AA5EE227A94ED002AD4ED027A94EDF7
:100C1800016AD4ED051AE4EE827ADFED666AD9E955
:100C28000032B0EE474A03EB8503F0EE665A02EB5A
:100C380085021968F0EE443A316092ED003AE4EE2C
:100C4800C63AB0EE666A04AA86ED013A93ED007AD8
:100C5800634BB4EEC73A84ED064A73EEE73AC4ED47
:100C6800027AF1EE10FAE2EE234ACDED043A58BFCB
:100C7800B0EE437AA5EE617AC4ED034A37EE447AC2
:100C8800A2EE875A8DED057A84ED075AF0EEE77AE1
:100C980093ED067A0433F6EE004A77EEC77AF5EE5E
:100CA800C07AF1EE10FACCBF13ED015A93ED025A57
:100CB8009F42A7EE857AA5EE876A83ED057A76EEE0
:100CC800876A0FD075EEA45AF2EC017ADEE7DFED01
:100CD800362ADFED446A9FED443A67EEA22AA7EE72
:100CE800A63A36E79FED415AF1EE044AD4ED117A5F
:100CF800012176EE853A9FED2F4ADFED3D5A0D44EE
:100D0800B0EE440A254886EE237AA6EEA40A80FEB1
:100D1800040A80FE640A8DED010A37EE677AB4EEA4
:100D2800C47AF1EE10FA75FE856AE7EE267AC4ED0C
:100D3800117A00F0EBFA9DED010A0221174800F044
:100D4800E5FA012225491E48FFF770FCDBF8002070
:100D5800DBF80430AA4531684244434411607268A4
:100D68001A607FF444AF07B0BDEC048BBDE8F08F88
:100D7800B1EE066ADFED166ADFED167AC3ED0E5A9C
:100D880037EE467AE7EE267A75EEE75AC3ED0F5A44
:100D980024E79FED153ADFED072ADAE6E40400249C
:100DA8003333733F48E17A3F713D0A3F008027455E
:100DB800CDCCCC3D000000000000FA44CCCC4C3F28
:100DC800C4060224CDCC4C3E004092456666663F80
:100DD800A470BD3E9A99193F9C030024E4030024A3
:100DE800BC030024AE47213F3333B33E6F12833A2E
:100DF800CDCC4C3D10B54748474C2DED028B00F04B
:100E08002DF9464B9FED468AF6EE008A1A785978F6
:100E1800B0EE480A434842EA012101F0C9FB4249C1
:100E28003C4800F059FA41484FF400420021606004
:100E380010F088FE3E4B00203E4A4FF07E51636121
:100E4800A3603D4B20603D4823623D4B2061314803
:100E58006362A3616263C4ED038AC4ED078AA16378
:100E680084ED0F8A00F03CFADFED367AB2EE007AB4
:100E78009FED356A4FF08042C7EE806A9FED335A86
:100E8800334B9FED344A83ED038A83ED028AC6EE25
:100E9800007A83ED078A83ED068A5A605A6183EDEA
:100EA8000E8A87EE006A83ED0F8A83ED108A83ED40
:100EB800118AF4EEC56AC3ED086AC3ED0C6AF1EE57
:100EC80010FAF4EEC57A54BFF0EE454AF0EE664AE1
:100ED80066EEA75AF1EE10FA27EEA87A26EE266AF1
:100EE80058BFF0EE457A64EE846AF1EEE55A67EE93
:100EF800847AC3ED095AB1EEC66AB1EEC77A83EDBA
:100F08000B6A83ED0A7AC3ED0D5AC3ED006AC3ED8F
:100F1800047AFEE7E4040024C4060224B01B010896
:100F280000000000B4060224A50A0008B406002444
:100F3800BDFFFF3E0000203FE7FFFF3FBDFFFF3F33
:100F4800E7FFFF3E000020430000C844C976FE3E8C
:100F58009C030024DB0FC94008B50D4A0D490E4813
:100F680010F0AAFD00230D480D4903628362084A68
:100F7800C0E9033310F0A0FD054A0A490A4810F0F9
:100F88009BFD034A09490A48BDE8084010F094BD92
:100F9800000000242D060008C4060224E4040024EE
:100FA80029060008310600089C03002425060008CD
:100FB800B406022400294ED0274BF0B5D0E900240E
:100FC800481E03F10C0E951C03F1100C4E00AC42A8
:100FD80018BF052802EB41058CBF0120002062459F
:100FE80038BFAE452CBF01270027384227D02644FA
:100FF800644538BFB64522D39D890026D8894FEA73
:10100800510E65F30F06A44602EB8E0E65F31F46DC
:10101800002560F30F0560F31F45104640F8046B88
:1010280070454CF8045BF9D121F00100C90705D5DA
:10103800998922F81010DB8924F81030F0BD023AA3
:10104800023C023D998922F8021FAA42D98924F854
:10105800021FF7D1F0BD7047180702242DE9F041AF
:1010680040F201138E4A012506462DED028BD8B0B9
:10107800C0F8CC21ADF81430002304958DF8163053
:1010880003F0BAFB002840F0FA80304604A903F0C8
:101098000FFB06F1080000F091FA82490DF194085F
:1010A800814B06F10C00814ACDE925130123414605
:1010B8002792ADF8A03002F08FFC03220123002410
:1010C8001AA902A806F110051A9414AF0294CDE9E2
:1010D8001E2300220123CDE9202301220023CDE98C
:1010E8002223734B1B9303F1007303F540731C9386
:1010F8004FF44173ADF8743002F0EEFF01230AA9F2
:1011080003A80D940A930C93102303948DF8383098
:10111800684B0B9302F0F2F9039906F1200000F0F6
:101128004BF94FF07E533021029A089328460993D1
:101138000323CDE9061306A901F030F9284601F08A
:1011480069F92846B0EE408A01F060F9D0ED007ADE
:10115800BC46DFF880E14546F8EE677ABEE80F0046
:1011680088EE277AACE80F009EE803008CE80300BD
:1011780086ED727A37F8141001342846113501F0DB
:1011880031FA0C2CF6D106F1140722460423414605
:10119800384606F1300500249FED478A01F030FA01
:1011A80009E001F027FC96ED720A01462846013451
:1011B80001F09AF92035072CE1B23846F1D9E1B2AD
:1011C800013401F017FC00230146F0EE480A2846D6
:1011D8001A4696ED720A01F055F90C2CEAD1374BF4
:1011E800012430461B88F48520F82C3F01F02AFFA3
:1011F8002246334906F5D87001F0D0F92246314924
:1012080006F2B71001F0CAF92F4B06F5DF70A6F801
:10121800C0411B88A6F8BE3101F014FF2B4B06F520
:10122800E170A6F8C4411B88A6F8C23101F00AFF94
:101238000223D6F8CC010FA9109300231030139382
:101248004BF68033CDE911440F9301F027FE384661
:1012580001F0BAFBD6F8CC41237D04F11005DBB9C7
:1012680028461B4D2368D4E90112009501F094FE2D
:101278000123237558B0BDEC028BBDE8F08104460C
:1012880004A930468DF8165003F012FA072C7FF4A3
:1012980004AF0DF1940810E7284601F0B3FEDFE72C
:1012A800180702240508050905070506050A0606A4
:1012B80004020404010A010B6F12033BBC1B010862
:1012C800B81B0108B41B0108AC1B0108A81B0108C6
:1012D800BD0F00085C1B0108103001F09FB800BF6B
:1012E800103001F097B800BF38B500F1300400F5B0
:1012F800D8752046203401F02DF9AC42F9D138BD1B
:1013080000EB411191ED0F0A704700BF0129D0F899
:10131800CC211CD931F002010DD19FED1B7ADFEDF4
:101328001B7A20EE070AB4EEE70AF1EE10FA03DDA5
:1013380040F6FF71D1817047B5EEC00AF1EE10FAA0
:10134800F8D4BCEEC00A10EE103A99B2F2E7DFED1D
:101358000E7A9FED0E7A60EE277AF4EEC77AF1EEF8
:1013680010FA0ADCF5EEC07AF1EE10FA09D4FCEEB8
:10137800E77A17EE903A9BB201E040F6FF7393814B
:10138800C8E70023FBE700BF00C04C4400F07F45DE
:1013980007490022074B01F1600010B4302459605E
:1013A8001A611C601A755DF8044BC3E902027047A4
:1013B8000000003018070224F0B58C2387B00160C4
:1013C800002203710124FA26194605AB8DF8142072
:1013D80002964022009323460194054602F024F920
:1013E800002840F09B809DF814300DF1170740222B
:1013F800284603F07F030097CDE901468DF81430A5
:101408008DF817302346297902F034F9002840F086
:101418008580042003F080F805AB4022284600931D
:101428002346CDE90146297902F0FEF8002875D156
:101438009DF8143040220097284603F0BF03CDE9F9
:1014480001468DF814308DF817302346297902F0BB
:1014580011F9002862D1042003F05EF80DF115039C
:101468004322284600932346CDE90146297902F014
:10147800DBF8002852D10DF11603482228460093C4
:101488002346CDE90146297902F0CEF8002845D156
:101498009DF8153043220097284643F001038DF844
:1014A80015308DF817309DF8163043F00103CDE95B
:1014B80001468DF816302346297902F0DBF868BB1F
:1014C8009DF816304822009728468DF81730234695
:1014D800CDE90146297902F0CDF8F8B905AB4022EB
:1014E800284600932346CDE90146297902F09CF865
:1014F800A0B99DF8142023460194284602F0CF0491
:1015080002960097402229798DF814408DF81740EB
:1015180002F0B0F8003818BF012000E0012007B041
:10152800F0BD00BFF0B5102387B0234C0122002581
:101538000126002702A920460195CDE902234FF490
:101548008052CDE904670AF0AFFA642003F0FAFB91
:1015580002A94FF480522046CDE9046702261027DD
:10156800CDE902670AF0A0FA0322102302A9204657
:10157800CDE9022300230422CDE904234FF480524D
:101588000AF092FA40F23223042202A901931023AE
:101598002046CDE90223019A012305924FF4805297
:1015A80004930AF081FA40F6060120460AF09CFAF4
:1015B800284607B0F0BD00BF380702241C4B0022A4
:1015C8001C494FF0400C30B5054689B002205960DF
:1015D80007219A601A620124DA620A224FF4006E27
:1015E800DC6006922022CDE9000104200821CDE923
:1015F800020103201021CDE9040108206946C3E94E
:1016080004024FF4C072181DC3E906C24FF4805299
:10161800C3E909E20AF01EFA38B92846FFF782FF43
:10162800003818BF012009B030BD204609B030BDD0
:101638003407022440410052614A0021D0B51368A2
:101648008EB00A91002B40F0B9805E4B01214FF615
:1016580083700C2411600221D3F8D42000260327BC
:1016680042F48052C3F8D420D3F8D42002F4805234
:101678000092009AD3F8E02042F01002C3F8E0206C
:10168800D3F8E02002F010020192019AD3F8E0208A
:1016980042F04002C3F8E020D3F8E02002F0400214
:1016A8000292029AD3F8E02042F00802C3F8E02040
:1016B800D3F8E02002F008020392039AD3F8E0205E
:1016C80042F48072C3F8E020D3F8E02002F480727C
:1016D8000492049AD3F8E02042F08002C3F8E02094
:1016E800D3F8E02002F080020592059AD3F8E020B2
:1016F80042F02002C3F8E020D3F8E02002F02002F4
:101708000692069AD3F8E02042F00402C3F8E020DB
:10171800D3F8E0300C9403F0040307930323079AEB
:101728000B93CDE9080108A9274805F077FC48F292
:101738003712022308A925480C94CDE90823CDE9DE
:101748000A6705F06BFC4CF20372022308A92048D3
:101758000C94CDE90823CDE90A6705F05FFC40F257
:10176800FF62022308A91B480C94CDE90823CDE9A0
:101778000A6705F053FC4FF60C72022308A91648B5
:101788000C94CDE90823CDE90A6705F047FC4FF62C
:101798003F02022308A911480C94CDE90823CDE99A
:1017A8000A6705F03BFC2022022308A90A480C948A
:1017B800CDE90A67CDE9082305F030FC0EB0D0BDAD
:1017C800300702240044025800100258001802583A
:1017D800000C025800200258001C0258001402583D
:1017E8002DE9F04FDFF8108406460D46144608F13F
:1017F80018002DED028B89B000AF02F065FDD8F816
:10180800183073B3D8F81C30D8F80490002B43690B
:101818000BBF4FF0080A4FF0100A4FF0020B4FF0C1
:10182800040BB9F1000F2AD0A200EA46012B02F1FD
:10183800070222F00702ADEB020D6846ADEB020D80
:10184800694600F03F81022B00F0D680002B6FD054
:101858002246C847D5462437BD46BDEC028BBDE8B5
:10186800F08FD8F81C30002BF5D0D8F804904FF042
:10187800080A4FF0020B4369B9F1000FD4D1FB619C
:10188800D8F80030BB61002BE5D0D54802F08EFDBA
:101898006B46BBF1020F786108EE103AFB6900F065
:1018A80083816A465146A2EBC40295466200EA4625
:1018B800B2FBFBF2AAEBC40085460AEB8200EE46B7
:1018C800F861ADEB010DF8690EEB820CC7F810C09A
:1018D800EC46ADEB010D00EB8201CCF80400CCF82E
:1018E800081001EB82013869E946CCF80C1000EBCE
:1018F8008201CCF800A001EB8202C9E900E0C9E945
:101908000212012B00F06483022B00F06C82002B82
:1019180000F08081620849466046BB69984718EE26
:10192800103A24379D46BD46BDEC028BBDE8F08FCA
:10193800002C8DD01A46D8ED0C6A9FEDB27A8446F9
:10194800331D36F922E00CF1080C07EE90EA33F962
:1019580022E00232F8EEE77A944267EE877A67EE81
:10196800A67A4CED027A07EE90EAF8EEE77A67EE8F
:10197800877A67EEA67A4CED017AE2D8F9612246B9
:10198800C847984ED8ED0D6A0020F9692B1D9FEDC8
:101998009E7A9FED9E6ADFED9E5A22E0F4EEC67AAB
:1019A800F1EE10FAC0F2C88447F6FE72D1ED017A62
:1019B80045F8202066EEA77AF4EEC77AF1EE10FA21
:1019C80040F2F080F4EEC67AF1EE10FAC0F2D58457
:1019D80047F6FE7243F820200230083184427FF631
:1019E80039AFD1ED007A66EEA77AF4EEC77AF1EE58
:1019F80010FAD3D83246D9E7002C3FF429AFD8EDF6
:101A08000C6A84469FED787A0022331D8E4656F87C
:101A180022100CF1080C07EE901A53F8221002322B
:101A2800F8EEE77A944267EE877A67EEA67A4CED8D
:101A3800027A07EE901AF8EEE77A67EE877A67EE91
:101A4800A67A4CED017AE2D871462246C7F81CE026
:101A5800C847664ED8ED0D6A0020F9692B1D9FED29
:101A68006A7A9FED6A6ADFF894C120E0F4EEC67ADC
:101A7800F1EE10FAC0F279843246D1ED017A45F8D8
:101A8800202066EEA77AF4EEC77AF1EE10FA40F25B
:101A98008780F4EEC67AF1EE10FAC0F25E84324620
:101AA80043F820200230083184427FF6D3AED1EDCE
:101AB800007A66EEA77AF4EEC77AF1EE10FAD5D876
:101AC8006246DAE7002C3FF4C3AED8ED0C6A8646CE
:101AD8009FED477A4FF0000C331D56F82C200EF17D
:101AE800080E82F40002A2F5000207EE902A53F8CD
:101AF8002C200CF1020CF8EEE77A82F4000264451F
:101B0800A2F5000267EE877A67EEA67A4EED027AB2
:101B180007EE902AF8EEE77A67EE877A67EEA67AFC
:101B28004EED017AD9D8F9612246C847314ED8ED31
:101B38000D6A0020F9692B1D9FED337A9FED336AFA
:101B4800DFF8BCC01FE0F4EEC67AF1EE10FAC0F27E
:101B5800FC833246D1ED017A45F8202066EEA77A5B
:101B6800F4EEC77AF1EE10FA18D9F4EEC67AF1EE6F
:101B780010FAC0F2DA83324643F8202002300831E6
:101B880084427FF667AED1ED007A66EEA77AF4EE6E
:101B9800C77AF1EE10FAD6D86246DBE76246EBE781
:101BA80062467DE7324615E7A100D646620807314E
:101BB80021F00701ADEB010DEA46ADEB010D6946D9
:101BC800ADEB0E0D0AEB8200EC46ADEB0E0D01EB12
:101BD8008202F861E946CCE900A0C9E9001290E662
:101BE800880702240280FFFF000000300082FF7F88
:101BF8000000003482FF7F006C070224007E008012
:101C08007E0080FF0000003804FF7FBF04FF7F3F95
:101C180000FEFF46002C00F0C982BBF1020FD8F885
:101C2800242000F0FA827969C7F8049002EB810E4B
:101C38005FED0C5A8A00DCF808100EF104007A6196
:101C48001A46DCF80C303B61331DD7F810903D6123
:101C5800FD69C7E902CB8C46834636F92210D8EDD8
:101C68000C7A06EE101A33F9221006EE901A3EF995
:101C78002210B8EEC66A07EE101AF8EEE66A3BF9CB
:101C88002210B8EEC77A26EE256A66EEA56A27EE18
:101C9800257A26EE276A66EEA76A27EE277A07EEE8
:101CA800901A51080232F8EEE77A0AEB8100944262
:101CB80080ED006A05EB810067EEA57AC0ED006A49
:101CC8000CEB810009EB810180ED007A98ED0C7A2C
:101CD80067EE877AC1ED007ABFD8D7F804903D69DE
:101CE800D7E902CB60466208BB6949469847D8F8ED
:101CF8002C307A69D8ED0D6A1A441FED3D7A1FED34
:101D08003D6A2B1D904602F1040A5FED3F5A0022FE
:101D1800A84ED9E900EC51E0F4EEC67AF1EE10FADB
:101D2800C0F2C78247F6FE7045F822000CEB0100AE
:101D3800D0ED007A66EEA77AF4EEC77AF1EE10FAE3
:101D48004BD9F4EEC67AF1EE10FAC0F2BA8247F631
:101D5800FE70BBF1020F43F822002BD0D9F808001F
:101D68000844D0ED007A66EEA77AF4EEC77AF1EE71
:101D780010FA36D9F4EEC67AF1EE10FAC0F2CD8236
:101D880047F6FE7048F82200D9F80C000144D1ED5E
:101D9800007A66EEA77AF4EEC77AF1EE10FA1ED949
:101DA800F4EEC67AF1EE10FAC0F2AF8247F6FE7191
:101DB8004AF82210023294427FF6B1AD51080EEB78
:101DC80081008900D0ED007A66EEA77AF4EEC77A32
:101DD800F1EE10FAA0D83046A6E73046B9E731460A
:101DE800E6E73046CEE7002C00F0E081BBF1020FB9
:101DF800D8F8243000F0E1817A69DCF8081003EBA8
:101E0800820EC7F804909300DFED6B5A0EF10400C0
:101E180000227B61DCF80C303B61331DD7F8109051
:101E28003D61FD69C7E902CB8C46834656F822100E
:101E3800D8ED0C7A07EE101A53F82210B8EEC76ADC
:101E480007EE101A5EF82210F8EEC76A07EE101AAD
:101E580026EE256A5BF82210B8EEC77A66EEA56A08
:101E680026EE276A27EE257A66EEA76A27EE277AF6
:101E780007EE901A51080232F8EEE77A0AEB810071
:101E8800944280ED006A05EB810067EEA57AC0ED0B
:101E9800006A0CEB810009EB810180ED007A98ED76
:101EA8000C7A67EE877AC1ED007ABFD8D7F804902C
:101EB8003D69D7E902CB60466208BB694946984745
:101EC800D8F82C307A69D8ED0D6A1A449FED3E7A1D
:101ED8009FED3E6A131D9246DFF8E4C00022FB61C5
:101EE8002B1D364ED9E9008E4EE0F4EEC67AF1EE9F
:101EF80010FAC0F2FC81304645F822000EEB0100D2
:101F0800D0ED007A66EEA77AF4EEC77AF1EE10FA11
:101F180049D9F4EEC67AF1EE10FAC0F2EF813046F4
:101F2800BBF1020F43F822002AD0D9F80800084470
:101F3800D0ED007A66EEA77AF4EEC77AF1EE10FAE1
:101F480035D9F4EEC67AF1EE10FAC0F2C9813046FE
:101F58004AF82200D9F80C000144D1ED007A66EE67
:101F6800A77AF4EEC77AF1EE10FA1ED9F4EEC67A23
:101F7800F1EE10FAC0F2AD813146F86940F822104E
:101F8800023294427FF6CBAC510808EB81008900FD
:101F9800D0ED007A66EEA77AF4EEC77AF1EE10FA81
:101FA800A3D86046A8E76046BAE76146E5E7604619
:101FB800CEE700BF0280FFFF000000300082FF7FF5
:101FC800007E00800000003404FF7FBF04FF7F3FD5
:101FD800002C00F0EB807A690021D8F82430C7F88B
:101FE800109003EB820ED7F81C909300FD610EF160
:101FF80004021FED0C6A7B61331D154656F821203B
:102008004808D8ED0C6ABBF1020F82F40002A2F571
:10201800000207EE902A53F8212082F40002B8EE5D
:10202800E77AA2F5000227EE067A07EE902A0AEB75
:102038008002F8EEE77A27EE267A67EE867A82ED56
:10204800007A09EB80024FEA800067EEA67AC2EDBB
:10205800007A27D05EF8212082F40002A2F500025F
:1020680007EE902A55F8212082F40002B8EEE77AAC
:10207800A2F5000227EE067A07EE902ADCF808207F
:10208800F8EEE77A024427EE267A67EE867A82ED42
:10209800007A98ED0C7ADCF80C2067EE877A024417
:1020A800C2ED007A02318C42A8D8D7F81090604669
:1020B8006208BB694946FD699847D8F82C307A69A7
:1020C800D8ED0D6A1A441FED407A1FED406A131DC2
:1020D8009246DFF8C4C20022FB612B1DAB4ED9E942
:1020E800008E4EE0F4EEC67AF1EE10FAC0F2C5802A
:1020F800304645F822000EEB0100D0ED007A66EE7E
:10210800A77AF4EEC77AF1EE10FA49D9F4EEC67A56
:10211800F1EE10FAC0F2BF803046BBF1020F43F86F
:1021280022002AD0D9F808000844D0ED007A66EEDB
:10213800A77AF4EEC77AF1EE10FA35D9F4EEC67A3A
:10214800F1EE10FAC0F2AE8030464AF82200D9F813
:102158000C000144D1ED007A66EEA77AF4EEC77A56
:10216800F1EE10FA1ED9F4EEC67AF1EE10FAC0F2CA
:102178008B803146F86940F82210023294427FF68B
:10218800CEAB510808EB81008900D0ED007A66EEED
:10219800A77AF4EEC77AF1EE10FAA3D86046A8E75A
:1021A8006046BAE76146E5E76046CEE7224649461B
:1021B8006046BB699847FFF7B2BBC7F810B000226A
:1021C80098ED0C6A331DDFED726AD7F81CB0786998
:1021D80056F8221007EE901A53F82210B8EEE77A54
:1021E80007EE901A51080232F8EEE77A27EE267ABF
:1021F8000AEB810E94420BEB810167EEA67A27EE7B
:10220800067A67EE867A8EED007AC1ED007ADFD81D
:102218008300D7F810B07B614DE61A46C7F810B0B6
:1022280098ED0C6A331DDFED5B6AD7F81CB078694E
:1022380036F9221007EE101A33F9221007EE901A19
:10224800B8EEC77A51080232F8EEE77A27EE267A16
:102258000AEB810E94420BEB810167EEA67A27EE1A
:10226800067A67EE867A8EED007AC1ED007ADFD8BD
:102278008300D7F810B07B6134E5F0EE675AFEEEC4
:10228800E45A15EE900A34E7F0EE675AFEEEE45A87
:1022980015EE901A6EE7F0EE675AFEEEE45A15EE68
:1022A800900A3AE7F0EE675AFEEEE45A15EE900A05
:1022B8004BE767EEA57AFDEEE77A17EE900A00B2D3
:1022C80032E567EEA57AFDEEE77A17EE900A00B2DE
:1022D8003FE5F0EE675AFEEEE05A15EE901A4CE62E
:1022E800F0EE675AFEEEE05A15EE900A30E6F0EE90
:1022F800675AFEEEE05A15EE900AFDE5F0EE675AD1
:10230800FEEEE05A15EE900A0AE667EEA57AFDEEB3
:10231800E77A17EE901A09B24AE567EEA57AFDEE5C
:10232800E77A17EE900A00B22CE5F0EE675AFEEE57
:10233800E45A15EE902A1FE467EEA57AFDEEE77AD7
:1023480017EE902A12B2FFF731BBF0EE675AFEEE95
:10235800E45A15EE902AFFF7FDBBF0EE675AFEEE41
:10236800E05A15EE902AFFF79BBBF0EE675AFEEE97
:10237800E05A15EE902AFFF780BB67EEA57AFDEECE
:10238800E77A17EE902A12B2FFF724BB82FF7F008C
:1023980000000030000000387E0080FF30B5184C87
:1023A800154685B0046004F1080EEC460FC98EE8A6
:1023B8000F00D4ED047AF5EEC07A8CE80F00F1EE48
:1023C80010FA1ADDB7EE006A94ED057A27EE277A3F
:1023D800C6EE276A84ED0D7AC4ED0C6A6DB120460D
:1023E80040F8185F01F070FF064903690020064AAB
:1023F8002162A262E36005B030BD012005B030BDA6
:102408006C070224C0200030C0000030006808308B
:10241800704700BF0068183001F0B6BF30B50468D7
:1024280083B00D46E3694BB1A3680020E26A616A94
:102438009B00009004F11C0001F048FFA3680748C6
:10244800A26A9B00216A009004F1180001F03EFF87
:102458000020C4E9005003B030BD00BFE9170008F0
:1024680010B4074B4FF07E5130240022032019612D
:102478009C60D8605DF8044B5961C3E90622704737
:102488006C070224F6EE007A9FED166A20EE207A99
:102498000160F7EE006A80ED036A80ED020A27EE1C
:1024A800277AC6EE877AF4EEE67AF1EE10FA11DDB5
:1024B800F0EE667A4FF07E514FF0000C0276002263
:1024C800C0ED017AC0F814C0016143768276C0ED90
:1024D800070A7047F4EEC67AF1EE10FAEAD5F0EE84
:1024E800467AE7E700000000DFED187AB6EE007ADA
:1024F800F7EE006A9FED166A60EE277A016080EDBC
:10250800036A80ED020A67EE877A86EEA77AB4EE50
:10251800E67AF1EE10FA10DDB0EE667A4FF0804CF4
:102528004FF07C514FF48072012380ED017AC0F89E
:1025380010C04161028383767047B4EEC67AF1EE2B
:1025480010FAEBD5B0EE467AE8E700BF6F12033B0E
:10255800000000000268037E128807EE902AFBEE56
:10256800C87A1BB1B7EE007A77EE677AD0ED056AC4
:1025780090ED047A77EEE67A437E67EE877A0BB1C0
:10258800F1EE677A90ED030A90ED017A77EEC07A62
:10259800A7EE270A80ED030A704700BF09884FF0AD
:1025A800000C8271C0F802C0018000F04BBD00BF72
:1025B80070B5044682B0C1F30726CDB2ADF8041059
:1025C80001F0A8FF4FF480724FF001232060A01D96
:1025D800A571A280E671A36002B0BDE8704000F06A
:1025E80031BD00BF82B04FF0000C0323ADF80410DA
:1025F800BDF8042080F810C00280438002B0704704
:102608002DE9F04FBE4E00258FB0BE4C037006F189
:1026180040034260074601928846202229463046F8
:10262800C4F85831C4F85461CDE90355CDE90555CE
:10263800CDE90755CDE90955CDE90B550FF082FADB
:102648002022294604F59970C4F82151C4F825516F
:10265800C4F82951C4F82D510FF074FA019B84F87D
:10266800385284F820317A68002A5FD02B464146D8
:10267800B64604F5907599464FF0010A03EB03102E
:10268800D1F800B0D1F804800133D1F808C022187D
:10269800CE6844F800B0C2F80480C2F808C0D6601A
:1026A800087C2EF8029B10740A7C05F8012F002A7A
:1026B80069D07A68113184F838A29A42DED84FF48A
:1026C800802291489DF8043008214FF000084FF00F
:1026D8000009C4F874310023C4E957020122C4F880
:1026E800643184F87031C4E95A2194F83812C4E985
:1026F800608981B3C4F88821002284F8713184F894
:1027080078313B78C4E96322A3B301220020012178
:10271800013B84F89421C4E96801082B2CD8DFE830
:1027280003F0ABB0B5BABFC4C9CFD6009DF804302A
:102738000121C4F86421C4F874314FF4802384F86B
:102748007021714AC4E9572308230022C4E95A13A7
:102758000023C4E960230123002284F87131002397
:1027680084F878310323C4F888313B78C4E96322BC
:10277800002BCAD184F89431644802F01BFF034649
:1027880038B1FFBEFEE77A6811319A423FF676AF5C
:1027980095E703A95D48039303F06AF80546002806
:1027A80068D1022240F2FF73CDE9082300230422F6
:1027B800CDE90A2394F82031002B00F0D5804FF0A2
:1027C800060921E0022B00F08980012B40F0C4802B
:1027D8009AF80130012B00F0C180002B4C4B18BF38
:1027E800002306A94948CDE9063902F00FFB002865
:1027F80040F0BF80013594F82031EDB2AB4240F291
:10280800B380444B53F825902FB207EB071704EB1E
:10281800070A504600F016FC05EB051323441B7C01
:10282800042B7DDC022B00F3918000F08D8063196E
:10283800002283F81021E35D002BC3D19AF8013000
:10284800062B00F08580072B00F08A80022B00F011
:102858009680032B00F09580002B00F09680012BCA
:1028680000F09180042B00F09280052B2A4B18BFB2
:102878000023B6E7FFBEFEE703224023C4E9662330
:102888007AE707226023C4E9662375E70F228023CD
:10289800C4E9662370E71F22A023C4E966236BE717
:1028A8003F22C023C4E9662366E77F22E023C4E908
:1028B800662361E7FF224FF48073C4E966235BE770
:1028C80040F2FF124FF49073C4E9662354E740F2D4
:1028D800FF324FF4A073C4E966234DE79AF801303C
:1028E800042B37D0052B3DD0002B40D0012B42D0F4
:1028F800022B42D0032B094B18BF002371E700BFFE
:10290800C0400030A8070224002002400409022425
:102918000002B025C01B01080000B84F0020903607
:1029280003233E1D04EB05084FF0000B264488F8EE
:10293800103130460BF1010B00F084FB98F8103190
:1029480004365B45F5DC76E70123EAE70223E8E78E
:10295800104B46E7104B44E7002342E70F4B40E794
:102968000F4B3EE70F4B3CE70FB0BDE8F08F0E4B27
:1029780037E7FFBEFEE70D4B33E70D4B31E70D4B55
:102988002FE70D4B2DE70D4B2BE70D4B29E70D4B93
:1029980027E700BF0800900C1000C0102000F014BA
:1029A8008000501D000180210004002A0008302EFC
:1029B800001060320040C03A0080F03E00005247EC
:1029C800000021430000844B38B5094C40F2FF72E7
:1029D8004FF0011104F5AE75284602F0F7FE94F8A1
:1029E8002021D4F854112846BDE8384002F062BCD2
:1029F800A8070224034B0F29D3F8540198BF00EB12
:102A080041007047A8070224214B02689A4200D06F
:102A18007047204A00232048D2F8D81030B51F4C00
:102A280041F0200183B0C4F8C001092004F5E07525
:102A3800C4E971034FF48060C2F8D810D2F8D820E6
:102A48004FF40061C4E9733094F8380202F02002B0
:102A5800C4F8D4114FF40051984201922846C4F8A2
:102A6800D811C4E97833019B14BF00234FF4807355
:102A7800C4F8DC3103F0FAFA08B1FFBEFEE704F54A
:102A8800AE73C4F8A851C4F8F83103B030BD00BF24
:102A9800002002400044025840000240A8070224D7
:102AA800014803F069BF00BF6809022402682DE9E4
:102AB800F84F4B4B9A4201D0BDE8F88F494D95F835
:102AC8003832002BF8D095F82031002B77D000242D
:102AD80005F10C0905F5997605F59077A04613E000
:102AE80003F0010117F811BCA9F1080000F086FBFA
:102AF800BBF1010F25D895F82031013409F11109EE
:102B08000236A2B293422BD917F8012F002AF4D02B
:102B1800D5F854310021327833F81400D5F85831FB
:102B280003EB041323F81200338801339BB233807C
:102B38005FFA83FA3A789A42D2D88A46A6F8008091
:102B4800D0E7CAF34001A9F1040000F057FBBBF13C
:102B5800020FCAF38001CED0484600F04FFBCAE707
:102B6800002395F83802204909229842C5F8C8314F
:102B78004FF48060C5F8C011C5F8C4214FF4006156
:102B88004FF40052C5F8CC3108BF4FF48073C5F834
:102B9800D821C5E9740100221448C5E97732C5F87F
:102BA800E42103F063FA08B1FFBEFEE795F820219F
:102BB800D5F854110E48BDE8F84F02F07BBB0A491E
:102BC80009224FF48060C5F8C831C5E970124FF486
:102BD80000614FF40052C5E97330C5E97512DAE7B0
:102BE80000200240A807022440000240680902248D
:102BF80004090224704700BF4F4B02689A4200D074
:102C080070474E4BD3F8E81030B541F000514C4CAA
:102C180085B0D4F84821C3F8E810D3F8E81001F0DB
:102C2800005101910199D3F8E01041F00101C3F876
:102C3800E010D3F8E03003F001030293029B32F076
:102C480002033DD0013A012A6BD9D4F84C31012B4B
:102C58000AD000223620114602F07EFE362005B04A
:102C6800BDE8304002F0B6BED4F8483133F0020275
:102C780034D0013B012BECD8442240233149324D5A
:102C8800C4F88C1000212846C4F8B010C4E92423E5
:102C980000224FF48063C4E926234FF400624FF406
:102CA8000053C4E928234FF480724FF48033C4E9F9
:102CB8002A2303F0DBF980B9E560C4F8C440C8E70B
:102CC8004FF48062032303A8ADF80C208DF80E3072
:102CD80000F0B8F9D4F84821B4E7FEE71B4BA2632B
:102CE8004322636140231A4DC4E9062300224FF4AE
:102CF80080632846C4E908234FF400624FF4005368
:102D0800C4E90A234FF480724FF48033C4E90C23DA
:102D180003F0ACF920B9D4F84831A560E464A8E719
:102D2800FEE74FF4A062032303A8ADF80C208DF84A
:102D38000E3000F087F988E700740040004402581C
:102D4800E809022428040240740A022410040240FC
:102D5800FC090224014803F00FBE00BFFC0902244D
:102D6800014803F009BE00BF740A022410B5054CDF
:102D7800204602F0ABFF04F58270BDE8104009F070
:102D880061B800BFE8090224164BD3F84821D3F8EC
:102D98005811022A4FEA510130B583B00CD088B2DD
:102DA800D3F85C21D3F8644102EB400300930CB1E3
:102DB8006846A04703B030BDD3F86021002AF9D097
:102DC80088B2D3F85C41D3F8645104EB400402EBB9
:102DD8004002CDE90042002DECD06846A84703B078
:102DE80030BD00BFE8090224134BD3F84821022A5A
:102DF80010B582B00CD0D3F85C11D3F864210091DF
:102E080022B1D3F8581168464908904702B010BD5E
:102E1800D3F86021002AF9D0D3F85C11D3F86441C3
:102E2800CDE90012002CF1D0D3F8581168464908B2
:102E3800A04702B010BD00BFE8090224094BD3F82F
:102E48004821022A0DD000B5D3E9581283B0019168
:102E580022B1D3F8581101A84908904703B05DF88A
:102E680004FB7047E80902240B4BD3F84821022AD7
:102E780010D0D3F8581110B5D3E95824C1F34F0333
:102E880082B0490802EB430301930CB101A8A047A3
:102E980002B010BD704700BFE809022430B58C4667
:102EA8003A4C3B4D8DB0046004F5A27EBCE80F009F
:102EB800AEE80F00DCF8003020462560CEF8003080
:102EC80002F016FE0023D4F84C510393C5B1162224
:102ED800012D049217D00022D4F85411D4F84831A7
:102EE8009142CDE9062218BF0222059233F0020270
:102EF80035D0013B012B3CD9002528460DB030BD0B
:102F080002230493E7E7234A0093C4F80C31C4F87A
:102F18001431C4F80421C4F81C31CDE9013301F09F
:102F280069FCD4F844314BF68032C4F80851002BC0
:102F380008BF1346B0FBF3F304F58270C4F81031F0
:102F480008F0EAFD0028D8D120230290694604F54C
:102F58008270009309F02EF80028BCD0CDE703A9B1
:102F68000A4802F0E7FE78B9D4F84831013B012B52
:102F7800C2D8102203A9054802F0DCFE051E18BFBE
:102F8800012528460DB030BD0125B6E7E809022421
:102F9800007400400010004070B504681D4682B0FF
:102FA8001046D4F84C31012B03D0D4F84831022B09
:102FB80024D1D4F85031069A002BC4F85C11C4F817
:102FC80064212B460CBF08260026C4F860010A4677
:102FD800C4F8585100212046009602F09FFDD4F80D
:102FE80060212B4610212046009602F097FD04F53B
:102FF800827008F031FE002002B070BD012002B0DE
:1030080070BD00BF10B50468D4F84C31012B09D14C
:10301800D4F8483133F0020106D0013B012B0BD91B
:10302800002010BD012010BD204602F003FED4F898
:103038004831013B012BF3D81021204602F0FAFD5C
:10304800002010BD8378022B30B504468FB037D0EE
:10305800032B33D0012B31D000230A93E378012BC3
:103068002AD0022B28D000230B93002320460C9350
:1030780001F046FD0546204601F04AFD23780990F7
:10308800082B13D8DFE803F01F3245586B7E91A454
:103098000500594BD3F8E02042F48072C3F8E020D1
:1030A800D3F8E03003F480730893089B09A92846F5
:1030B80003F0B4FF0FB030BD0B93D6E70A93CDE70A
:1030C80011230A93CAE74C4B09A92846D3F8E020F4
:1030D80042F00102C3F8E020D3F8E03003F0010326
:1030E8000093009B03F09AFF0FB030BD424B09A933
:1030F8002846D3F8E02042F00202C3F8E020D3F8D3
:10310800E03003F002030193019B03F087FF0FB047
:1031180030BD394B09A92846D3F8E02042F0040213
:10312800C3F8E020D3F8E03003F004030293029BD5
:1031380003F074FF0FB030BD2F4B09A92846D3F810
:10314800E02042F00802C3F8E020D3F8E03003F0B2
:1031580008030393039B03F061FF0FB030BD264BB8
:1031680009A92846D3F8E02042F01002C3F8E0206D
:10317800D3F8E03003F010030493049B03F04EFFF0
:103188000FB030BD1C4B09A92846D3F8E02042F007
:103198002002C3F8E020D3F8E03003F020030593C1
:1031A800059B03F03BFF0FB030BD134B09A9284620
:1031B800D3F8E02042F04002C3F8E020D3F8E03032
:1031C80003F040030693069B03F028FF0FB030BDC1
:1031D800094B09A92846D3F8E02042F08002C3F839
:1031E800E020D3F8E03003F080030793079B03F057
:1031F80015FF0FB030BD00BF0044025870B5064639
:103208000D4601F07DFC0446304601F081FC2A1E83
:103218000146204618BF0122BDE8704004F006B9F7
:103228000023122270B586B0CDE902230493036807
:10323800032B01D804230593061D841D304601F095
:103248005FFC0546304601F063FC034601A92846A9
:10325800019303F0E3FE204601F052FC03462046AA
:103268001C4601F055FC01A903462046019303F0D2
:10327800D5FE06B070BD00BF634A0368934210B51F
:103288008CB028D0614A934258D0614A934200F0EA
:103298009480604A934201D00CB010BD5E4C5F48E8
:1032A800D4F8E03043F00203C4F8E030D4F8E0305A
:1032B80003F002030A930A9BFFF7B2FFD4F8F43035
:1032C80043F08003C4F8F430D4F8F43003F08003FA
:1032D8000B930B9BE0E7504C5148D4F8E03043F097
:1032E8000203C4F8E030D4F8E03003F0020301939D
:1032F800019BFFF795FFD4F8E83000221F2043F424
:1033080000131146C4F8E830D4F8E83003F4001389
:103318000293029BD4F8D83043F00103C4F8D830A4
:10332800D4F8D83003F001030393039B02F014FB95
:103338001F200CB0BDE8104002F04CBB364C394899
:10334800D4F8E03043F08003C4F8E030D4F8E0303B
:1033580003F080030493049BD4F8E03043F00203A5
:10336800C4F8E030D4F8E03003F002030593059B7D
:10337800FFF756FFD4F8E8300022212043F48003F9
:103388001146C4F8E830D4F8E83003F48003069313
:10339800069BD4F8D83043F00103C4F8D830D4F8E9
:1033A800D83003F001030793079B02F0D5FA2120D8
:1033B8000CB0BDE8104002F00DBB1B48FFF730FF12
:1033C800154B00224820D3F8E840114644F4000485
:1033D800C3F8E840D3F8E84004F400040894089CD3
:1033E800D3F8D84044F00104C3F8D840D3F8D83013
:1033F80003F001030993099B02F0AEFA48200CB0D0
:10340800BDE8104002F0E6BA005400400058004001
:10341800005C0040001C005800440258DC0D0224E7
:10342800540B02242C0C0224040D02242DE9F04331
:103438001A4B87B000254FF010099E46EC46184BF2
:10344800FF22E04667461A700EF118060EF13004A6
:10345800CDE90055CDE90255ADF80090BCE80F0064
:10346800CDE90455AEE80F009CE803000095ADF8DF
:1034780000908EE80300B8E80F000FC69CE8030030
:103488000095ADF8009086E803000FCF0FC49CE8C4
:10349800030084E8030007B0BDE8F08304000024BB
:1034A800500B022410B5EFF3108472B6084B1A784B
:1034B800120602D504B962B610BD1B78D822054899
:1034C8005BB202FB0300143003F056FAF2E700BFC8
:1034D800500B0224540B0224014804F0FFBE00BF25
:1034E800E00B0224014804F0F9BE00BFB80C022426
:1034F800014804F0F3BE00BF900D02242DE9F0430B
:103508000F68D8243F4D85B007FB04F4032F05EB63
:103518000403036040DCCB680E46012B3CD84DD039
:103528004FF0D808B646DFF8FC9008FB0758BEE80D
:103538000F00C446ACE80F00DEF800300DF1100EA5
:10354800CCF80030D8F808C099E80F000EE90F0051
:103558000EEB8703BCF1010F53F8103CC8F88C3010
:1035680031D0BCF1020F42D0BCF1000F35D0317C14
:103578008C34D823002201202C4403FB0753490034
:10358800C3E92602C3F894102046C3E92822C3E9F8
:103598002A2204F0D5FB18B1012005B0BDE8F0835C
:1035A8000146204604F0A6FE0028F5D10146204633
:1035B80004F0CAFE003818BF0120EEE70B7C103B70
:1035C800672BADD9E8E701F013F90F4B98420CBF10
:1035D8000E4B0F4BC8F89030C9E701F009F90A4BB8
:1035E80098420CBF0B4B0C4BC8F89030BFE701F06A
:1035F800FFF8054B98420CBF084B094BC8F89030B0
:10360800B5E700BF540B0224000E27072D0FB0307A
:103618003211D0205F4390608A62E030200BA01006
:103628001A098010741B01082DE9F041046884B060
:103638001E46E368BDF82C80C3B90D4617468C3486
:10364800204604F053FE2028FAD120460C9C33462D
:103658003A462946CDE901840A9C009404F0F0FC1E
:10366800003818BF012004B0BDE8F081012004B083
:10367800BDE8F0812DE9F041046884B01E46E36896
:10368800BDF82C80C3B90D4617468C34204604F08B
:103698002DFE2028FAD120460C9C33463A4629466E
:1036A800CDE901840A9C009404F0A0FB003818BFFF
:1036B800012004B0BDE8F081012004B0BDE8F0812C
:1036C800044B10221A7483F8E82083F8C02183F889
:1036D80098227047540B022430B5002395B04FF45C
:1036E8008071062204460B9306921393CDE90C13BE
:1036F800CDE90E33CDE9113301F07EF807282BD040
:1037080004F1100541F2883206A9284605F02EFC7E
:1037180028B10123184684F85C3015B030BD022268
:10372800022306A92846CDE9002310220123CDE96A
:10373800022300224FF48003CDE9042305224FF031
:10374800807306926A460F9341F2883305F07AFD3A
:103758000028DED115B030BD0323012084F85C3089
:1037680015B030BD0000000070B50023A4B04FF0C4
:1037780080724FF480750446ADF806300D93CDE99C
:1037880010320122CDE90E53CDE91223CDE91433CD
:10379800002943D0F02300F1100508AEADF806303B
:1037A800C02341F2883231462846089305F0DEFBF3
:1037B80028B10123184684F85C3024B070BD41F26A
:1037C80088320DF10601284605F03AFC0346002828
:1037D800EFD105224FF480711E93284616924FF0C0
:1037E80080721B9321931F9202AA9FED1F7BCDE944
:1037F8001C13CDE922338DED027B9FED1D7B41F239
:10380800883316A98DED047B9FED1B7B8DED067B20
:1038180005F018FD0028CCD124B070BD00F11005CA
:1038280008AE612341F2883231462846089305F0F4
:103838009DFB0028BDD141F288320DF106012846D2
:1038480005F07CFC0028B4D1BDF80630204623F0F2
:10385800780343F04003ADF80630FFF73DFF00283A
:103868009ED0A6E7AFF30080000000000100000032
:1038780010000000010000000000000000004000EF
:103888002DE9F04F00234FF4807501264FF0807822
:1038980004462DED028BABB08DF8073013932193BE
:1038A800299314950E96CDF85C80CDE91533CDE9B2
:1038B8001863CDE91A33CDE92253CDE92433CDE994
:1038C800273306231C9300F097FF072808D004F13C
:1038D800100741F288321CA9384605F047FB40B171
:1038E8000123184684F85C302BB0BDEC028BBDE890
:1038F800F08F4FF0020A4FF0020B4FF0050941F22A
:10390800883308AA1CA93846CDF89480CDF8709061
:103918009FED2D8BCDE908AB4FF0000A4FF4800BDB
:103928008DED0A8BCDE90CAB05F08CFC0028D7D1C6
:1039380041F2883238460EA905F018FB0028CFD18D
:10394800402341F288320DF1070138468DF80730DF
:1039580005F076FB0028C3D141F288330EA902AAEC
:103968003846CDF83890CDF85C809FED197B8DED09
:10397800048BCDE906AB8DED027B05F063FC0346B5
:103988000028ADD1CDF870904FF00109CDF89480A2
:103998004FF00008219308AA29931CA938462295BC
:1039A800CDE92333CDE9273341F288338DED0A8BF6
:1039B800CDE90CABCDE9088905F044FC002893D08B
:1039C800304684F85C608FE71000000001000000BA
:1039D80040000000400000002DE9F043624CA3B015
:1039E8000D46046000F008FF072800F0A980286849
:1039F80023466968AA6807C31E46AB8926F8043BB4
:103A08003046257B677B05F093FAE0B9574B012DCB
:103A18004FF00108E061236114BF4FF480134FF4A5
:103A28000003C4E9058893FAA3F3B3FA83F34FF4C8
:103A38008079013BC4F82490C4E90B003046236226
:103A480005F00AFA38B10122134684F85C201846BA
:103A580023B0BDE8F08366230B90139041F28832BF
:103A680006A90693CDE90C90CDE90E00CDE9110029
:103A7800304605F07BFA0028E5D1992341F28832D7
:103A880006A93046069305F071FA0028DBD1052314
:103A98001C9019906A4614934FF08073219014A9D2
:103AA8001D9341F288339FED2A7BCDE91A90CDE929
:103AB8001F008DED007B9FED287B30468DED027B4E
:103AC8009FED277B8DED047B05F0BCFB0028BAD168
:103AD80029462046FFF748FE0028B4D12046FFF7C4
:103AE800CFFE03460028AED1002FB0D11893304640
:103AF8000027002606AA14A9CDF86890CDE91F333F
:103B0800EB2314934FF440631B934FF40053179324
:103B18004FF440431C93A0231693062319934FF0A8
:103B2800805321934FF04073CDE906671D9305F04C
:103B380001FC034600288AD0434684F85C8086E767
:103B480001230322184684F85C2023B0BDE8F083E3
:103B5800000000000100000010000000010000004B
:103B68000000000000004000B40E02240050005283
:103B78002DE9F04F8FB0414B0024026800AF9A4204
:103B88007C63C7E90944C7E90B4403D03C37BD4609
:103B9800BDE8F08F3A4B40F609213A48EB46D3F896
:103BA800D42007F11C0607F1220A4FF0020942F45B
:103BB80080424FF00308C3F8D420D3F8D42002F48D
:103BC8008042BA60BA68D3F8E02042F04002C3F8F5
:103BD800E020D3F8E02002F04002FA60FA68D3F857
:103BE800E02042F02002C3F8E020D3F8E02002F001
:103BF80020023A613A69D3F8E02042F01002C3F893
:103C0800E020D3F8E02002F010027A617A69D3F854
:103C1800E02042F00202C3F8E020D3F8E030F86177
:103C280003F002033984BB61174B7B60BB697B6877
:103C380053F8040F7B6000F063FF7B680546186843
:103C480000F066FF16F8013B786207F12401284668
:103C5800C7F830807B63C7E90A9403F0DFF956455B
:103C6800E5D100225C20114601F076FE5C2001F0CF
:103C7800B1FE3C37DD46BD46BDE8F08F005000522E
:103C8800004402580A0A0909100F0224114B02685D
:103C98009A4200D07047104A70B5D2F8D4300F4C11
:103CA80023F4804304F11806C2F8D43054F8040F02
:103CB80000F026FF0546206800F02AFF0146284646
:103CC80003F0ECFAB442F1D15C20BDE8704001F099
:103CD8008FBE00BF0050005200440258100F02244B
:103CE800014805F0B3BB00BFC40E0224084B1A1DDF
:103CF800981D03F1080110B49C1C9A6603F10A028E
:103D0800C3E91834C3E91B015DF8044B5A677047CF
:103D1800B40E022438B5036871B9026A00F12805A7
:103D280000F5AC74012A0CBF002140218BBB1D4B50
:103D38005722C0F858310DE0426A00F1C00500F57D
:103D4800E874012A0CBF00214021EBB1164B5A221E
:103D5800C0F8D03100232046C4E901214FF4805235
:103D68004FF48061636262614FF48042C4E90331B9
:103D78004FF48073C4E906234FF40033236202F042
:103D880075F958B1FFBEFEE7084B5822C0F8D0318C
:103D9800E0E7074B5922C0F85831DBE7C5E9204472
:103DA800A56338BD100002407000024028000240A0
:103DB800580002402DE9F043821D05468BB0031DD3
:103DC80005F10A010830CDE9052305F10C02AB69BC
:103DD800CDE907010992002B3DD0EB69B3FA83F8CE
:103DE8004FEA58180123022205AE0AAF4FF0060920
:103DF8000393CDE9012356F8044B2B79227893429B
:103E080016D02B68F3B1012B02D1F2B10A23049327
:103E1800204600F07DFE03462046009300F070FE29
:103E2800694603F0FBF8BE42E5D10BB0BDE8F0836C
:103E3800697963789942E4D1B8F1000FF3D02B681F
:103E4800002BE0D1CDF81090E2E76378022B14BF85
:103E58000A230823DBE74FF00108C3E7534A036846
:103E6800934230B505468BB055D02032934252D09C
:103E78004F4A934204D02032934201D00BB030BD58
:103E88004C4C4D48D4F8E03043F00103C4F8E0301E
:103E9800D4F8E03003F001030593059BD4F8E03033
:103EA80043F00803C4F8E030D4F8E03003F0080326
:103EB8000693069BD4F8E03043F04003C4F8E030A2
:103EC800D4F8E03003F040030793079BD4F8F030B0
:103ED80043F40003C4F8F030D4F8F03003F40003DE
:103EE8000893089BFFF766FFD4F8D830296843F099
:103EF80001032F4A3048C4F8D830891AD4F8D8308A
:103F080018BF012103F001030993099B0BB0BDE819
:103F18003040FFF7FFBE274C2848D4F8E03043F084
:103F28000103C4F8E030D4F8E03003F00103009353
:103F3800009BD4F8E03043F01003C4F8E030D4F824
:103F4800E03003F010030193019BD4F8E03043F014
:103F58004003C4F8E030D4F8E03003F040030293A3
:103F6800029BD4F8F03043F48003C4F8F030D4F85E
:103F7800F03003F480030393039BFFF71BFFD4F88F
:103F8800D830296843F00103084A0C48C4F8D830EF
:103F9800891AD4F8D83018BF012103F0010304931B
:103FA800049B0BB0BDE83040FFF7B4BE0458014095
:103FB800045C014000440258881102242C0F02249A
:103FC800014802F0D9BC00BF84100224014802F065
:103FD800D3BC00BFFC100224014802F0CDBC00BFD6
:103FE800E0120224014802F0C7BC00BF58130224A3
:103FF8001A4A0368934210B40BD02032934208D077
:10400800174A934216D02032934213D05DF8044BDE
:104018007047144B0022D3F85442C3F85822002C9E
:10402800F4D0D3F84802D3E9931223465DF8044B41
:10403800520818470B4B0022D3F8B044C3F8B424F5
:10404800002CE3D0D3F8AC24D3F8A814D3F8A404F4
:10405800520823465DF8044B184700BF0458014036
:10406800045C01402C0F0224184A0368934210B4E0
:104078000BD02032934208D0154A934217D02032F1
:10408800934214D05DF8044B7047124BD3E9942443
:104098005208C3F85822002CF4D0D3E992012346E1
:1040A80001EB820100EB82005DF8044B1847094BD5
:1040B800D3F8AC24D3F8B0445208C3F8B424002C85
:1040C800E0D0D3F8A814D3F8A404E8E704580140D2
:1040D800045C01402C0F02242DE9F04F0C684FF4CA
:1040E8001776754F87B004FB06F6012C07EB060A16
:1040F800C0F800A000F3A0800D468E464FF00008DF
:10410800D44669A3D3E9002369A1D1E90001CDE927
:10411800022306ABCAF8508203EB8403CDE90401FD
:1041280053F810BC53F8083CCAE992880193BEE8DA
:104138000F00ACE80F00BEE80F00ACE80F00019BD1
:104148009EE80300CAF828B0CAF8C0308CE803001B
:104158002B69042B0CD8DFE803F0737D87910300EB
:104168004FF41773554A03FB04739A64C3F8E020AD
:10417800AA692B6A002A43D0002B4FF4177308BF93
:10418800022203FB047318BF0322DA6201221A63B6
:10419800EA696B6A002A40D1191E4FF4177318BFD9
:1041A800012103FB0473C3E931126B69022B05D8A3
:1041B800434A12F80380434A52F823904FF4177386
:1041C80006F128004246494603FB0474002338449C
:1041D80063646363E365C4F8DC30C4F8CC30C4F8C6
:1041E800F430C4E90F33C4E91533C4E93533C4E9FD
:1041F8003B33022307F0CCF9002849D0FFBEFEE785
:10420800191E4FF4177318BF012103FB0473C3E988
:104218000B12EA696B6A002ABED0002B4FF41773A1
:1042280008BF022203FB047318BF0322C3F8C4208B
:104238000122C3F8C820B8E7012007B0BDE8F08F15
:104248004FF417734FF4FA5203FB04739A64C3F8DC
:10425800E0208DE74FF417734FF47A5203FB047391
:104268009A64C3F8E02083E74FF417734FF4FA42D7
:1042780003FB04739A64C3F8E02079E74FF41773DB
:104288004BF6803203FB04739A64C3F8E0206FE7AF
:1042980006F1C000022342464946384407F078F93F
:1042A8000028CAD0FFBEFEE704580140045C014064
:1042B80024580140245C01402C0F0224007701009F
:1042C800001C0108041C01080068704770B50468E8
:1042D80082B015460E46C4F85032C4E99212069AC6
:1042E800C4F85422A269012A26D0626A012A9AB225
:1042F80011D0294604F1C000019207F005FA236A9B
:10430800019A012B10D0294604F1280007F0FCF986
:10431800002002B070BD04F1C000019207F086FAD7
:10432800236A019A012BEED1314604F1280007F0E7
:104338007DFA002002B070BD226A012A9AB211D01B
:10434800294604F12800019207F0DEF9636A019A10
:10435800012B10D0294604F1C00007F0D5F9002040
:1043680002B070BD04F12800019207F05FFA636A99
:10437800019A012BEED1314604F1C00007F056FA3C
:10438800002002B070BD00BF03681B69042B05D86C
:10439800044A02EB830393ED000A70479FED020A7B
:1043A800704700BF101C010800803B470368D3F822
:1043B80058027047704700BF08B500F0B1FCBDE86F
:1043C800084001F091BB00BF064808B503680BB16F
:1043D80003F030F8044803681BB1BDE8084003F057
:1043E800DFBF08BDF0170224E8130224064808B509
:1043F80003680BB103F01EF8044803681BB1BDE85D
:10440800084003F0CDBF08BDF0170224E8130224CA
:10441800064808B503680BB103F00CF804480368B4
:104428001BB1BDE8084003F0BBBF08BDF01702246C
:10443800E8130224364BDA6A520062D59A6A9A6AFD
:104448009A6A9B6A180600D500BE314B9B6A99068A
:1044580000D500BE2E4B9B6ADA0600D500BE2C4B59
:104468009B6A1B0700D500BE294B9B6A980700D59D
:1044780000BE274B9B6AD90700D500BE244B9B6A18
:104488001A0400D500BE224B9B6A9B0400D500BECF
:104498001F4B9B6AD80400D500BE1D4B9B6A1905AB
:1044A80000D500BE1A4B9B6A5A0500D500BE184BB2
:1044B8009B6A9B0500D500BE154B9B6AD80500D5A5
:1044C80000BE134B9B6A990100D500BE104B9B6A36
:1044D800DA0100D500BE0E4B9B6A1B0300D500BE57
:1044E8000B4B9B6A580300D500BE094B9B6A990386
:1044F80000D500BE064B9B6ADA0306D400BE00BE98
:10450800FEE7DB6A9B07FAD5F8E700BEF6E700BFCF
:1045180000ED00E000F010BC00F014BC2DE9F04103
:10452800CEB004464C2200210AA80DF00BFB202235
:10453800002102A80DF006FBBC2200211EA80DF0E8
:1045480001FB022004F0A0FB2368012B4FF00003BD
:1045580054D0534A02250193C820D16A514B21F007
:104568000101D162D26A02F0010201929A6942F411
:1045780040429A619B6903F440430193019B494A75
:1045880093699B04FCD548490224002201268B6AC2
:1045980004274FF0080823F0030323438B62052305
:1045A80016900AA818934FF480331096179419940C
:1045B8001597CDF86880CDE91B222122CDE9134457
:1045C800CDE90A2305F04AF800B1FEE73F220323AC
:1045D800294602A8CDE9022300220823CDE90423B5
:1045E80040224023CDE9062340234FF48062CDE9E1
:1045F800082305F061FB0346B8B1FEE7294A042504
:104608000093F0209169264B41F4404191619269F1
:1046180002F440420092DA6A42F00102DA62DB6A8E
:1046280003F001030093009BA9E720224FF4805177
:1046380025934FF440152B9280222D931EA830937A
:10464800269135914FF48071249234920C22339440
:10465800439140F2271120921022CDF884802A97A6
:104668001F96CDE92E34CDE93B334FF48033CDE9A5
:1046780022463193002446930623CDE93E452793ED
:104688004FF48063094C2C931E94CDE9281205F051
:104698006FFD00B1FEE704F01DFB4EB0BDE8F081F0
:1046A8000004005800480258004402580F130F0332
:1046B8002DE9F0410D46044684B0D1E9000184E8B3
:1046C800030000F0FDFAAE79002E37D06F460AF0ED
:1046D80077FEFEF7ABFE09F043FB0AF0FBFB2B79F4
:1046E800002B54D16B799BB1BFF34F8FBFF36F8F02
:1046F8003C4B0022C3F85022BFF34F8FBFF36F8F9C
:104708005A6942F400325A61BFF34F8FBFF36F8F7B
:104718004FF0FF3200230024002539463248029228
:104728008DF80C30CDE9004509F03AFF2E4809F024
:104738009FFF08F045FF04B0BDE8F08120466F46B2
:10474800FFF7ECFE012401F07DF94FF040534FF4E0
:10475800807838460193254BADF80040CDE9023802
:1047680001F08EF919224FF0404338468DF80F407A
:10477800ADF80D808DF801408DF80A608DF808209D
:10478800019301F07DF9042001F06AF99FE7154CC7
:104798000023C4F88430BFF34F8FD4F8803043F639
:1047A800E07EC3F3C906C3F34E334FEA431C0CEA59
:1047B8000E00334640EA8372013BC4F860225A1C5B
:1047C800F8D1ACF1200C1CF1200FF0D1BFF34F8FC2
:1047D800636943F480336361BFF34F8FBFF36F8F17
:1047E80080E700BF00ED00E0E41302240E0001039F
:1047F80005F092BB05F0ACBB1C4B9B6803F17842FB
:10480800B2F5003F25D3B3F5803F20D303F16042D2
:10481800B2F5003F1FD303F15C42B2F5002F1CD361
:1048280003F17042B2F5902F19D303F14842B2F563
:10483800803F16D303F18042B2F1806F13D303F1A6
:10484800E043B3F5000F2CBF082007207047012074
:1048580070470020704702207047032070470420EB
:104868007047052070470620704700BF00ED00E044
:1048780003480023034A044903600DF01DB900BF33
:10488800E413022400000024BD43000810B4204CA7
:104898000022204B83B0D4F888101F4841F47001DF
:1048A800C4F8881019681D4C41F0010119601A619B
:1048B800196808401A4918609A61DA611A629A629E
:1048C800DA621A635A639A63DA631A645A64186874
:1048D80020F4802018601A66D3F8DC2042F0604289
:1048E800C3F8DC20D3F8DC300193019B236819401E
:1048F800B1F1005F03D20B4B0122C3F80821044B2E
:104908004FF000629A6003B05DF8044B704700BF37
:1049180000ED00E0004402587FEDF6EA0010005C6C
:104928000000FFFF0080005100F57171D0F8040409
:1049380008F02EBAC1EBC10300EB8303D0F80404DE
:10494800D3F8082208F052BAC1EBC10300EB830385
:10495800D0F804049A6C08F087BA00BFD0F80404B1
:1049680008F026BBC16810B5044619B1022900D069
:10497800FEE70121D4F8040408F004FBD4F8040489
:10498800BDE8104008F0D6BA10B50446D0F80404C3
:1049980008F0FCFA2268D2F8003E43F00103C2F89E
:1049A800003E236A23B1034A136943F006031361E7
:1049B80010BD00BF00ED00E0D0F8040408F0F0BA24
:1049C800D0F8040408F004BBD0F8040408F0FEBAD8
:1049D800D0F8040408F0FEBAD0F8040408F0FCBAD1
:1049E8009446D0F898021A4608B5634604F03CF895
:1049F800032802D8024B185C08BD022008BD00BF7E
:104A0800341C0108D0F8980208B504F0BBF8032854
:104A180002D8024B185C08BD022008BD341C0108EE
:104A2800D0F8980208B504F0F1F8032802D8024B30
:104A3800185C08BD022008BD341C01080A06D0F81D
:104A4800983206D4C1EBC10103EB810191F8FE0154
:104A5800704701F07F01C1EBC10103EB810191F8BF
:104A68003E007047D0F8980208B503F0E7FF032826
:104A780002D8024B185C08BD022008BD341C01088E
:104A8800D0F8980208B504F055F8032802D8024B6C
:104A9800185C08BD022008BD341C0108D0F8980233
:104AA80008B504F01FF8032802D8024B185C08BDAB
:104AB800022008BD341C0108D0F8C00208F03ABD35
:104AC800D0F8C00208F04EBDD0F8C00208F056BDBC
:104AD800704700BFD0F8C00208F03CBDD0F8C00253
:104AE80008F03CBDD0F8D00308B503F063F80328FC
:104AF80002D8024B185C08BD022008BD381C01080A
:104B0800024B027853F82200704700BF5C1C010872
:104B1800024B427833F81200704700BF3C1C010872
:104B28008CB00A2814D8DFE800F01523313F4D5B1C
:104B38006977859306004D4BD3F8E02042F48062F4
:104B4800C3F8E020D3F8E03003F480630B930B9BA9
:104B58000CB07047454BD3F8E02042F00102C3F88F
:104B6800E020D3F8E03003F001030193019BEFE765
:104B78003E4BD3F8E02042F00202C3F8E020D3F81D
:104B8800E03003F002030293029BE1E7374BD3F8CE
:104B9800E02042F00402C3F8E020D3F8E03003F04C
:104BA80004030393039BD3E7304BD3F8E02042F090
:104BB8000802C3F8E020D3F8E03003F008030493B8
:104BC800049BC5E7294BD3F8E02042F01002C3F854
:104BD800E020D3F8E03003F010030593059BB7E716
:104BE800224BD3F8E02042F02002C3F8E020D3F8AB
:104BF800E03003F020030693069BA9E71B4BD3F88C
:104C0800E02042F04002C3F8E020D3F8E03003F09F
:104C180040030793079B9BE7144BD3F8E02042F02F
:104C28008002C3F8E020D3F8E03003F08003089353
:104C3800089B8DE70D4BD3F8E02042F48072C3F84F
:104C4800E020D3F8E03003F480730993099B7FE7F1
:104C5800064BD3F8E02042F40072C3F8E020D3F802
:104C6800E03003F400730A930A9B71E7004402588A
:104C7800704700BF0F4B1B780BB90120704710B568
:104C880004464FF47A700C4AB0FBF3F31068B0FB9B
:104C9800F3F000F0C1FE0F2C00D808B1012010BDC0
:104CA800002221464FF0FF3000F056FE034B002053
:104CB8001C6010BD540000244C000024580000243F
:104CC80038B50320124D00F035FE124C04F054FFA5
:104CD800114A12499369C3F30323CB5C03F01F0302
:104CE80020FA03F30E202B60926902F00F028A5C0F
:104CF80002F01F02D3402360FFF7BCFF10B101246C
:104D0800204638BD0446FFF7B3FF204638BD00BF34
:104D18004C0000245000002400440258241C0108C0
:104D2800034A044B11681B780B441360704700BF9B
:104D3800B41A022454000024014B1868704700BFBD
:104D4800B41A022438B50446FFF7F6FF0546631C7B
:104D580002D0044B1B781C44FFF7EEFF431BA34211
:104D6800FAD338BD54000024014B1868000C704772
:104D78000010005C704700BF806B08B5FFF7FAFFB2
:104D880008BD00BF836B5A6D12F0500F5A6D10B5F5
:104D98001DD1196842F400725A650A6812F0080FAA
:104DA800CA681BD012F4406F0DD1CA6894040AD4A3
:104DB8005A6D22F480725A655A6DD10403D45A6D23
:104DC80042F001025A651846FDF770FE10BDD20682
:104DD8000AD4DB6CBDE81040DB6C18479007E7D0BD
:104DE8001846FDF763FEF1E71846FDF703FF10BD0F
:104DF800806B08B5436D43F040034365836D43F012
:104E080004038365FDF7F6FE08BD00BFF0B5002278
:104E180083B0019290F85020012A00F01C810346CB
:104E280001201A6883F850009468640700F18A80AA
:104E38000C68C4F31305002D40F08F80C4F384641C
:104E4800A0404D684FF01F0ED6694FEA951C3043BD
:104E58000CF00C0CD06105F01F0002F13005844005
:104E68000EFA00FE5CF8050020EA0E0004434CF838
:104E78000540906840076ED4956815F0080547D13D
:104E88000C68072002F11406B94F4FEAD45CC4F34A
:104E980004540CF0040C00FA04FE886800FA04F4C8
:104EA8005CF8060020EA0E0020434CF8060038683B
:104EB80000F07040B0F1805F00F0C580D068D6681F
:104EC800C70600F1E880C6F382064869760000FA52
:104ED80006F60F69042F00F0C18002F1600408682B
:104EE80054F827C000F0F8400CF0004C40EA0C00E1
:104EF800304344F82700487E0E69012854F82600FC
:104F080008BF4FF0004520F00040054344F8265004
:104F18009068C40714D4CE68086806F01807954C42
:104F2800D2F8C050FC40C0F31307044025EA070537
:104F38002C43C2F8C040904CA64246D0002816DB4D
:104F4800002003E05A6D42F020025A65002283F8DF
:104F5800502003B0F0BD9068DAE794FAA4F5B5FAEA
:104F680085F5C4F3846405F01F05A84069E7834903
:104F78008A4200F0B68001F580718A4200F0B18063
:104F88007F4D804CA968A46801F0E076E44304F002
:104F98000104002C00F0B4807B4CA04200F0FC809F
:104FA8007A4CA04200F01A81794CA042C8D149023B
:104FB800C6D474498A42C3D1AA68002022F0E0729C
:104FC800324342F48002AA60C0E7002F6AD090FA08
:104FD800A0F4B4FA84F4013404F01F04092C00F29C
:104FE800A48090FAA0F4B4FA84F490FAA0F5B5FA83
:104FF80085F5013401260135A40605F01F0504F0E6
:10500800F84406FA05F52C4390FAA0F0B0FA80F0BF
:10501800304400F01F0000EB400000052043C60D9F
:1050280002F11405C0F30450072406F0040604FA3C
:1050380000F7745924EA07048F6807FA00F0204340
:10504800705108687AE7D6684869C6F38206760020
:1050580000FA06F63DE7022003B0F0BD106E0C68BA
:1050680000F0F840A506B0EB846F30D0506E00F029
:10507800F840854226D0906E00F0F84085422BD04B
:10508800D06E00F0F84085427FF442AFD06E20F039
:105098000040D0663CE77608486906F0080600FA42
:1050A80006F616E7800E441C04F01F06092E2DD8BC
:1050B800A406012004F0F844B040044306EB46007F
:1050C8000005ABE7506E20F000405066D3E7106E45
:1050D80020F000401066C9E7906E20F0004090660E
:1050E800CEE7264C2B4D04F58074A96854F8F86C6B
:1050F800A468344301F0E076E44304F0010448E78F
:105108005A6D012042F020025A651FE706EB46005F
:10511800A50601241E3805F0F84504FA06F6000530
:10512800354340F00070284379E790FAA0F5B5FAC6
:1051380085F590FAA0F4B4FA84F401350126013417
:10514800AD0604F01F0405F0F84506FA04F42543FB
:1051580090FAA0F4B4FA84F4344404F01F0404EB85
:105168004404A4F11E00000540F00070DBE700BF16
:105178000010005CFFFF0F000000FF470020024006
:105188000063025800600258000084CB000052C738
:105198000000B8CF0023024008023FF5D1AE1749FE
:1051A8008A427FF4CDAE164AA9681268154821F0E4
:1051B800E07192093143A0FB020241F40001920917
:1051C800A96052000192019A002A3FF4B9AE019AEF
:1051D800013A0192019A002AF9D1B1E611F08070E2
:1051E8007FF4AEAE05498A427FF4AAAEAA6822F0DF
:1051F800E072324342F08072AA60A7E6006002586B
:105208004C000024632D3E0503689A68D20701D537
:10521800002070479968214A114270B5044608D0A9
:10522800636D012043F010036365A36D0343A36519
:1052380070BD99681A4A0A4042F001029A60FFF765
:105248007BFD2368174A054693421ED002F58072FB
:1052580093421AD0144A9268114E0AE09A68324072
:1052680042F001029A60FFF767FD401B0228D7D879
:1052780023681A68D2070FD49A68D107EED5FFF7CA
:105288005BFD401B0228F3D9CAE7084A9268D0069A
:10529800E2D0074A9342DFD1002070BD3F00008072
:1052A800C0FFFF7F00200240006302580023024035
:1052B800002102402DE9F0413A4D044600680F46AE
:1052C8001646A84219D0384B984216D0374DAB68CD
:1052D8008068420716D494F85020012A12D003F0AF
:1052E8001F080122B8F1090F84F850200DD90023B6
:1052F800012084F85030BDE8F0812D4DAB688068FE
:105308004207E8D50220BDE8F08140F2212323FAC4
:1053180008F3DB4313EA0205E9D12046FFF774FFDF
:10532800002839D1626D234B2168134043F4807300
:105338006365B8F1000F02D01B4B994203D0636D2F
:1053480023F480136365636D13F4805328D0A36D31
:1053580023F00603A365E06C3346174D3A46403107
:10536800C563164D0564164DC5641C2541F8405C9F
:10537800002584F8505051F83C5C45F0100541F880
:105388003C5C01F031F822680E4B91680B4043F009
:1053980004039360BDE8F08184F85050BDE8F081C3
:1053A800A365D8E7002002400021024000630258AC
:1053B80000230240FEF0FFFF8D4D0008814D0008DC
:1053C800F94D0008C0FFFF7F38B503689A68910758
:1053D80002D59B68002038BD9A68D20723D59A6801
:1053E800044602F00D02012A08D0636D012043F043
:1053F80010036365A36D0343A36538BD9868032153
:105408000A4A024042F002029A601960FFF794FCCF
:10541800054604E0FFF790FC401B0228E5D8236806
:105428009B68DB07F6D4002038BD00BFC0FFFF7FB4
:1054380038B5574A04460368934226D002F580726D
:10544800934222D0534B9B6813F4403F22D004F080
:105458004DFD63680546B3F5003F00F08880B3F55D
:10546800403F70D0B3F5803F00F08180FFF77CFCAF
:1054780041F2030398422DD8474B9D425DD92268DB
:10548800936843F48073936038BD444B9B6813F46E
:10549800403FDCD14FF4002005F0F4FD6368054679
:1054A800B3F5101F6DD008D8B3F5E01F55D01AD941
:1054B800B3F5001FDAD14509D8E7B3F5201F4AD064
:1054C800B3F5301FD2D1FFF74FFC41F203039842E6
:1054D80033D92D0A324B9D421DD82268936823F494
:1054E8004073936038BDB3F5801F06D00AD9B3F571
:1054F800A01F02D0B3F5C01FB8D19B0C5B00B5FB51
:10550800F3F5B3E7B3F5002FF7D023F40022B2F593
:10551800802FF2D0AAE7234B234A2B4493421ED96B
:10552800224B234A2B449342226893682BD823F4B6
:10553800407343F40073936038BD2268936823F482
:105548008073936038BD8508FFF70EFC41F20303B2
:105558009842BFD890E7C50988E7050986E7226819
:10556800936823F4407343F48073936038BD1B0C35
:10557800B5FBF3F5FFF7F8FB41F203039842A9D80E
:105588007AE7850972E743F44073936038BD00BF3A
:105598000020024000630258002D31010023024020
:1055A800105E5F00EFA1A0FF0F5E5F00DF4341FFC9
:1055B8001FBCBE0030B5002383B00193002800F063
:1055C800D080456D0446002D00F0BA8022689368AB
:1055D8009B0003D59168714B0B4093609368DD0085
:1055E80015D46F4B90686F491B6801406E489B0942
:1055F80041F08051A0FB030391609B090193019B3B
:105608002BB1019B013B0193019B002BF9D19368BE
:10561800D80024D4636D012543F010036365A36D9E
:105628002B43A365936813F0040F636D1DD1D9064E
:105638001BD4636D23F4817343F00203636593689D
:10564800DB0728D4594B9A4217D003F580739A4246
:1056580013D0574B9B68D9071DD4564A15E0936859
:10566800002513F0040F636DE1D0636D012543F04D
:1056780010032846636503B030BD4C4A4E4B926810
:105688009B681343D80706D44C4A9368616823F48F
:105698007C130B439360FFF767FB41F20303A16898
:1056A8009842237F52D894F815C01A04206B42EA16
:1056B8004C3202430A43012B03D1236A013B42EADD
:1056C8004342636A23B103F47873A16A0B431A4314
:1056D80023683B49D86801400A43DA609A6812F0A7
:1056E800040F9A681CD112071AD4D868354A217D4C
:1056F800024042EA8132E16A0A43DA6094F83820CB
:10570800012A3AD01A6922F001021A611A69204660
:10571800616B22F070420A431A61FFF789FE236821
:10572800E268012A21D01A6B22F00F021A63636D16
:10573800284623F0030343F00103636503B030BD3B
:10574800FDF762F9A56584F850503FE71029AAD102
:10575800617D1A0442EA4132216B0A4342F01C027D
:10576800A9E70125284603B030BD196BA26921F0CD
:105778000F01013A0A431A63D9E7D4E910211869DD
:105788000A43114901400A43A16C0A43E16B42EA0A
:10579800014242F001021A61B8E700BFC0FFFF5F93
:1057A8004C000024C0FFFF6F632D3E05002002401F
:1057B80000600258006302580021024000230240A2
:1057C80003C0F0FFFCBFFFFF1EF800FCF0B500238C
:1057D80083B0019390F85030012B40D00123044648
:1057E8000E46154680F85030FFF7EEFDE8B9676DB4
:1057F80005F080421B4B06F480311B4D3B401B4F8C
:1058080043F00203636523689E68354015430D43E2
:1058180045F000459D609A68002A0FDB636D23F010
:10582800030343F00103636503E0636D43F0100372
:105838006365002384F8503003B0F0BD019A01324B
:105848000192019ABA42E6D9636D0022012023F041
:10585800120384F8502043F010036365ECE702203C
:1058680003B0F0BDFDEEFFFFC0FFFE3FFF955A55A8
:10587800F0B490F850200E68012A49D00346294A0E
:1058880001201C6883F85000944208D05A6D00210A
:1058980042F0200283F850105A65F0BC7047224D40
:1058A800AA6852070AD5A2685A6D012042F0200260
:1058B8005A65002283F85020F0BC7047A06810F0A9
:1058C8000400F1D1C6B1DFF868C04F68DCF80820E1
:1058D80022F440423A43CCF80820A468AA6822433C
:1058E800D40713D48A68DCF8081016430F4A0A4014
:1058F8001643CCF80860DCE70D498A6822F4404278
:105908008A60A068AA680243D00704D50020D0E7BF
:105918000220F0BC70478C683046044A22408A60F6
:10592800C7E700BF0020024000210240E0F0FFFF6F
:105938000023024006494FF6FF0C0002054BCA68D7
:1059480000F4E06002EA0C0210430343CB607047A6
:1059580000ED00E00000FA051B4BDB68C3F30223EF
:1059680000B5C3F1070E03F1040CBEF1040F28BF04
:105978004FF0040EBCF1060F1AD9033B4FF0FF3C61
:105988000CFA03FC22EA0C024FF0FF3C00280CFA48
:105998000EFC21EA0C0101FA03F141EA02010ADBDB
:1059A80009010A4BC9B2034483F800135DF804FBEC
:1059B80000221346E8E700F00F000901044BC9B2C2
:1059C800034419765DF804FB00ED00E000E100E017
:1059D800FCEC00E0002807DB00F01F010123400970
:1059E800024A8B4042F82030704700BF00E100E0D7
:1059F80000280DDB4309012200F01F000549203370
:105A080002FA00F041F82300BFF34F8FBFF36F8F06
:105A1800704700BF00E100E0431EB3F1807F0CD265
:105A28004FF0E022002006494FF0F00C53610723A5
:105A380081F823C09061136170470120704700BF4F
:105A480000ED00E0BFF35F8F044B00215A6A22F497
:105A580080325A62C3F89410704700BF00ED00E02E
:105A6800064B40F00100C3F894005A6A42F48032B1
:105A78005A62BFF34F8FBFF36F8F704700ED00E09E
:105A8800174A4378C2F89830017821B3436800B5C3
:105A9800C2F89C30C37A90F80CC01B0690F80FE04F
:105AA80043EA0C7390F80AC00B43817B43EACC436A
:105AB80090F80DC043EA8C4390F809C043EA41438B
:105AC800017A43EA0E4343EA0C2343EA4103C2F84E
